{
  "contractName": "DStorage",
  "abi": [
    {
      "anonymous": false,
      "inputs": [
        {
          "indexed": false,
          "internalType": "uint256",
          "name": "fileId",
          "type": "uint256"
        },
        {
          "indexed": false,
          "internalType": "string",
          "name": "fileHash",
          "type": "string"
        },
        {
          "indexed": false,
          "internalType": "uint256",
          "name": "fileSize",
          "type": "uint256"
        },
        {
          "indexed": false,
          "internalType": "string",
          "name": "fileType",
          "type": "string"
        },
        {
          "indexed": false,
          "internalType": "string",
          "name": "fileName",
          "type": "string"
        },
        {
          "indexed": false,
          "internalType": "string",
          "name": "fileDescription",
          "type": "string"
        },
        {
          "indexed": false,
          "internalType": "uint256",
          "name": "uploadTime",
          "type": "uint256"
        },
        {
          "indexed": false,
          "internalType": "address payable",
          "name": "uploader",
          "type": "address"
        }
      ],
      "name": "FileUploaded",
      "type": "event"
    },
    {
      "inputs": [
        {
          "internalType": "uint256",
          "name": "",
          "type": "uint256"
        }
      ],
      "name": "files",
      "outputs": [
        {
          "internalType": "uint256",
          "name": "fileId",
          "type": "uint256"
        },
        {
          "internalType": "string",
          "name": "fileHash",
          "type": "string"
        },
        {
          "internalType": "uint256",
          "name": "fileSize",
          "type": "uint256"
        },
        {
          "internalType": "string",
          "name": "fileType",
          "type": "string"
        },
        {
          "internalType": "string",
          "name": "fileName",
          "type": "string"
        },
        {
          "internalType": "string",
          "name": "fileDescription",
          "type": "string"
        },
        {
          "internalType": "uint256",
          "name": "uploadTime",
          "type": "uint256"
        },
        {
          "internalType": "address payable",
          "name": "uploader",
          "type": "address"
        }
      ],
      "stateMutability": "view",
      "type": "function",
      "constant": true
    },
    {
      "inputs": [],
      "name": "name",
      "outputs": [
        {
          "internalType": "string",
          "name": "",
          "type": "string"
        }
      ],
      "stateMutability": "view",
      "type": "function",
      "constant": true
    },
    {
      "inputs": [
        {
          "internalType": "string",
          "name": "_fileHash",
          "type": "string"
        },
        {
          "internalType": "uint256",
          "name": "_fileSize",
          "type": "uint256"
        },
        {
          "internalType": "string",
          "name": "_fileType",
          "type": "string"
        },
        {
          "internalType": "string",
          "name": "_fileName",
          "type": "string"
        },
        {
          "internalType": "string",
          "name": "_fileDescription",
          "type": "string"
        }
      ],
      "name": "uploadFile",
      "outputs": [],
      "stateMutability": "nonpayable",
      "type": "function"
    }
  ],
  "bytecode": "0x60806040526040518060400160405280600881526020017f4453746f7261676500000000000000000000000000000000000000000000000081525060009080519060200190620000519291906200006a565b50600180553480156200006357600080fd5b506200017f565b828054620000789062000149565b90600052602060002090601f0160209004810192826200009c5760008555620000e8565b82601f10620000b757805160ff1916838001178555620000e8565b82800160010185558215620000e8579182015b82811115620000e7578251825591602001919060010190620000ca565b5b509050620000f79190620000fb565b5090565b5b8082111562000116576000816000905550600101620000fc565b5090565b7f4e487b7100000000000000000000000000000000000000000000000000000000600052602260045260246000fd5b600060028204905060018216806200016257607f821691505b602082108114156200017957620001786200011a565b5b50919050565b610e91806200018f6000396000f3fe608060405234801561001057600080fd5b50600436106100415760003560e01c806306fdde0314610046578063e82d9d3314610064578063f4c714b414610080575b600080fd5b61004e6100b7565b60405161005b9190610809565b60405180910390f35b61007e600480360381019061007991906109aa565b610145565b005b61009a60048036038101906100959190610a95565b610445565b6040516100ae989796959493929190610b12565b60405180910390f35b600080546100c490610bdb565b80601f01602080910402602001604051908101604052809291908181526020018280546100f090610bdb565b801561013d5780601f106101125761010080835404028352916020019161013d565b820191906000526020600020905b81548152906001019060200180831161012057829003601f168201915b505050505081565b6000855111610189576040517f08c379a000000000000000000000000000000000000000000000000000000000815260040161018090610c59565b60405180910390fd5b60008351116101cd576040517f08c379a00000000000000000000000000000000000000000000000000000000081526004016101c490610cc5565b60405180910390fd5b6000825111610211576040517f08c379a000000000000000000000000000000000000000000000000000000000815260040161020890610d31565b60405180910390fd5b6000815111610255576040517f08c379a000000000000000000000000000000000000000000000000000000000815260040161024c90610dc3565b60405180910390fd5b600073ffffffffffffffffffffffffffffffffffffffff163373ffffffffffffffffffffffffffffffffffffffff16141561028f57600080fd5b6000841161029c57600080fd5b60405180610100016040528060015481526020018681526020018581526020018481526020018381526020018281526020014281526020013373ffffffffffffffffffffffffffffffffffffffff168152506002600060015481526020019081526020016000206000820151816000015560208201518160010190805190602001906103299291906106cd565b506040820151816002015560608201518160030190805190602001906103509291906106cd565b50608082015181600401908051906020019061036d9291906106cd565b5060a082015181600501908051906020019061038a9291906106cd565b5060c0820151816006015560e08201518160070160006101000a81548173ffffffffffffffffffffffffffffffffffffffff021916908373ffffffffffffffffffffffffffffffffffffffff160217905550905050600160008154809291906103f290610e12565b91905055507f6e95bbaa37a5fdec42a312e049dea2fe6160ebe659214d3409b4f91f164c2f5260015486868686864233604051610436989796959493929190610b12565b60405180910390a15050505050565b600260205280600052604060002060009150905080600001549080600101805461046e90610bdb565b80601f016020809104026020016040519081016040528092919081815260200182805461049a90610bdb565b80156104e75780601f106104bc576101008083540402835291602001916104e7565b820191906000526020600020905b8154815290600101906020018083116104ca57829003601f168201915b50505050509080600201549080600301805461050290610bdb565b80601f016020809104026020016040519081016040528092919081815260200182805461052e90610bdb565b801561057b5780601f106105505761010080835404028352916020019161057b565b820191906000526020600020905b81548152906001019060200180831161055e57829003601f168201915b50505050509080600401805461059090610bdb565b80601f01602080910402602001604051908101604052809291908181526020018280546105bc90610bdb565b80156106095780601f106105de57610100808354040283529160200191610609565b820191906000526020600020905b8154815290600101906020018083116105ec57829003601f168201915b50505050509080600501805461061e90610bdb565b80601f016020809104026020016040519081016040528092919081815260200182805461064a90610bdb565b80156106975780601f1061066c57610100808354040283529160200191610697565b820191906000526020600020905b81548152906001019060200180831161067a57829003601f168201915b5050505050908060060154908060070160009054906101000a900473ffffffffffffffffffffffffffffffffffffffff16905088565b8280546106d990610bdb565b90600052602060002090601f0160209004810192826106fb5760008555610742565b82601f1061071457805160ff1916838001178555610742565b82800160010185558215610742579182015b82811115610741578251825591602001919060010190610726565b5b50905061074f9190610753565b5090565b5b8082111561076c576000816000905550600101610754565b5090565b600081519050919050565b600082825260208201905092915050565b60005b838110156107aa57808201518184015260208101905061078f565b838111156107b9576000848401525b50505050565b6000601f19601f8301169050919050565b60006107db82610770565b6107e5818561077b565b93506107f581856020860161078c565b6107fe816107bf565b840191505092915050565b6000602082019050818103600083015261082381846107d0565b905092915050565b6000604051905090565b600080fd5b600080fd5b600080fd5b600080fd5b7f4e487b7100000000000000000000000000000000000000000000000000000000600052604160045260246000fd5b610881826107bf565b810181811067ffffffffffffffff821117156108a05761089f610849565b5b80604052505050565b60006108b361082b565b90506108bf8282610878565b919050565b600067ffffffffffffffff8211156108df576108de610849565b5b6108e8826107bf565b9050602081019050919050565b82818337600083830152505050565b6000610917610912846108c4565b6108a9565b90508281526020810184848401111561093357610932610844565b5b61093e8482856108f5565b509392505050565b600082601f83011261095b5761095a61083f565b5b813561096b848260208601610904565b91505092915050565b6000819050919050565b61098781610974565b811461099257600080fd5b50565b6000813590506109a48161097e565b92915050565b600080600080600060a086880312156109c6576109c5610835565b5b600086013567ffffffffffffffff8111156109e4576109e361083a565b5b6109f088828901610946565b9550506020610a0188828901610995565b945050604086013567ffffffffffffffff811115610a2257610a2161083a565b5b610a2e88828901610946565b935050606086013567ffffffffffffffff811115610a4f57610a4e61083a565b5b610a5b88828901610946565b925050608086013567ffffffffffffffff811115610a7c57610a7b61083a565b5b610a8888828901610946565b9150509295509295909350565b600060208284031215610aab57610aaa610835565b5b6000610ab984828501610995565b91505092915050565b610acb81610974565b82525050565b600073ffffffffffffffffffffffffffffffffffffffff82169050919050565b6000610afc82610ad1565b9050919050565b610b0c81610af1565b82525050565b600061010082019050610b28600083018b610ac2565b8181036020830152610b3a818a6107d0565b9050610b496040830189610ac2565b8181036060830152610b5b81886107d0565b90508181036080830152610b6f81876107d0565b905081810360a0830152610b8381866107d0565b9050610b9260c0830185610ac2565b610b9f60e0830184610b03565b9998505050505050505050565b7f4e487b7100000000000000000000000000000000000000000000000000000000600052602260045260246000fd5b60006002820490506001821680610bf357607f821691505b60208210811415610c0757610c06610bac565b5b50919050565b7f46696c652048617368204d7573742042652050726f7669646564000000000000600082015250565b6000610c43601a8361077b565b9150610c4e82610c0d565b602082019050919050565b60006020820190508181036000830152610c7281610c36565b9050919050565b7f46696c652054797065204d7573742042652050726f7669646564000000000000600082015250565b6000610caf601a8361077b565b9150610cba82610c79565b602082019050919050565b60006020820190508181036000830152610cde81610ca2565b9050919050565b7f46696c65204e616d65204d7573742042652050726f7669646564000000000000600082015250565b6000610d1b601a8361077b565b9150610d2682610ce5565b602082019050919050565b60006020820190508181036000830152610d4a81610d0e565b9050919050565b7f46696c65204465736372697074696f6e204d7573742042652050726f7669646560008201527f6400000000000000000000000000000000000000000000000000000000000000602082015250565b6000610dad60218361077b565b9150610db882610d51565b604082019050919050565b60006020820190508181036000830152610ddc81610da0565b9050919050565b7f4e487b7100000000000000000000000000000000000000000000000000000000600052601160045260246000fd5b6000610e1d82610974565b91507fffffffffffffffffffffffffffffffffffffffffffffffffffffffffffffffff821415610e5057610e4f610de3565b5b60018201905091905056fea2646970667358221220277a8fec75d6eafc5f8a97da51e5079d4470562157b84bc68f6227b98463930b64736f6c634300080b0033",
  "immutableReferences": {},
  "source": "// SPDX-License-Identifier: MIT\r\npragma solidity >=0.4.21 < 0.9.0;\r\n\r\n\r\ncontract DStorage{\r\n    string public name =\"DStorage\";\r\n    uint fileCount=1;\r\n\r\n    struct File{\r\n        uint fileId;\r\n        string fileHash;\r\n        uint fileSize;\r\n        string fileType;\r\n        string fileName;\r\n        string fileDescription;\r\n        uint uploadTime;\r\n        address payable uploader;\r\n    }\r\n\r\n    mapping(uint => File) public files;\r\n    event FileUploaded(\r\n        uint fileId,\r\n        string fileHash,\r\n        uint fileSize,\r\n        string fileType,\r\n        string fileName,\r\n        string fileDescription,\r\n        uint uploadTime,\r\n        address payable uploader\r\n    );\r\n\r\n    function uploadFile(\r\n        string memory _fileHash,\r\n        uint _fileSize,\r\n        string memory _fileType,\r\n        string memory _fileName,\r\n        string memory _fileDescription\r\n        ) public\r\n    {\r\n        //TODO: validate data\r\n\r\n        require(bytes(_fileHash).length > 0,\"File Hash Must Be Provided\");\r\n        require(bytes(_fileType).length > 0,\"File Type Must Be Provided\");\r\n        require(bytes(_fileName).length > 0,\"File Name Must Be Provided\");\r\n        require(bytes(_fileDescription).length > 0,\"File Description Must Be Provided\");\r\n        require(msg.sender != address(0x0));\r\n        require(_fileSize > 0);\r\n\r\n        //TODO: add a new file\r\n        files[fileCount]=File(\r\n            fileCount,\r\n            _fileHash,\r\n            _fileSize,\r\n            _fileType,\r\n            _fileName,\r\n            _fileDescription,\r\n            block.timestamp,\r\n            payable(msg.sender)\r\n            );\r\n        fileCount++;\r\n\r\n        emit FileUploaded(\r\n            fileCount,\r\n            _fileHash,\r\n            _fileSize,\r\n            _fileType,\r\n            _fileName,\r\n            _fileDescription,\r\n            block.timestamp,\r\n            payable(msg.sender)\r\n        );\r\n    }\r\n\r\n\r\n}",
  "sourcePath": "C:\\Users\\ACT\\OneDrive\\Desktop\\blockchain_long_journey\\project-four\\contracts\\DStorage.sol",
  "compiler": {
    "name": "solc",
    "version": "0.8.11+commit.d7f03943.Emscripten.clang"
  },
  "schemaVersion": "3.4.4",
  "updatedAt": "2022-02-27T13:13:55.091Z",
  "networkType": "ethereum",
  "devdoc": {
    "kind": "dev",
    "methods": {},
    "version": 1
  },
  "userdoc": {
    "kind": "user",
    "methods": {},
    "version": 1
  }
}